:020000040800F2
:10000000D0080020B501000811460008CF3D0008C7
:100010002D450008DD1A0008DD4C00080000000036
:10002000000000000000000000000000154600086D
:10003000FF1B0008000000001346000817460008D8
:10004000CF010008CF010008CF010008CF01000850
:10005000CF010008CF010008CF010008CF01000840
:10006000CF010008CF010008CF010008CF01000830
:10007000CF010008CF010008CF010008C91B00080C
:10008000CF010008CF010008CF010008CF01000810
:10009000D14C0008CF010008CF010008CF010008B3
:1000A000CF010008F1460008CF010008CF01000889
:1000B000CF010008CF01000800000000CF010008B8
:1000C000CF0100080000000000000000CF01000880
:1000D000000000009D4C0008CF0100080000000057
:1000E000CF010008CF010008CF01000800F002F89E
:1000F00000F050F80AA090E8000C82448344AAF172
:100100000107DA4501D100F045F8AFF2090EBAE86F
:100110000F0013F0010F18BFFB1A43F0010318473B
:10012000FC7400001C750000103A24BF78C878C128
:10013000FAD8520724BF30C830C144BF04680C60ED
:10014000704700000023002400250026103A28BF35
:1001500078C1FBD8520728BF30C148BF0B60704739
:10016000662906F08687642900F08C80002070479D
:100170001FB500F037FD04000020002105F0A6FDAA
:10018000401C60600020002105F08AFDE0601FBD7A
:1001900010B510BD01F008F81146FFF7E9FF05F0B2
:1001A00093FB01F02FF803B4FFF7F2FF03BC04F058
:1001B000F1FE00000948804709480047FEE7FEE7D6
:1001C000FEE7FEE7FEE7FEE7FEE7FEE7FEE7FEE707
:1001D00004480549054A064B70470000C54600081B
:1001E000ED000008D0020020D0080020D00400203C
:1001F000D00400207047B2F120030AD5C2F12003D9
:1002000020FA02F001FA03F321FA02F140EA0300B6
:10021000704721FA03F04FF0000170470FB4044912
:1002200010B503AA029800F087FC10BC5DF814FB1F
:100230000400002070B5044685690068C10601D538
:10024000302600E02026C00707D070BDD4E9012188
:1002500030469047206A401C20626D1EF6D570BD66
:1002600070B5044685690078C00707D170BDD4E930
:10027000012120209047206A401C20626D1EF6D587
:1002800070BD00002DE9F041064600241068752974
:10029000314616A510D0AFF30080002802DA4042A4
:1002A00013A507E031688A0701D512A502E04907C6
:1002B00004D511A5012401E0AFF3008000210A223A
:1002C00006F1240709E0B0FBF2FCB0FBF2F302FBFD
:1002D0001C00303078541846491C0028F3D12346BE
:1002E0002A463046BDE8F04100F0BEB900000000EB
:1002F0002D0000002B000000200000002DE9F04739
:100300004FF0000A89460446C0F820A02046E16864
:100310008847002876D0252806D0D4E901219047C7
:10032000206A401C2062F1E7E168204600258847EA
:10033000C4F81CA006460027C4F818A02A2E09D02D
:10034000304604F063FD38B304EB8708303EC8F84C
:10035000186019E059F8041B204604EB87029161EC
:10036000E1688847012F064618D1E069002820DAA5
:1003700025F020051DE0D8F8180000EB800006EB02
:1003800040003038C8F818002046E1688847064623
:1003900004F03CFD0028EED1012F0AD02E2E08D10A
:1003A0002046E16888477F1C0646022F45F020055D
:1003B000C4DBA069002803DA404245F00105A061D2
:1003C000E80701D025F01005B6B1A6F141001928C3
:1003D00002D8203645F400654A463146204625605D
:1003E0004D46FFF7BDFE58B1012806D0ED1D25F0A2
:1003F000070000F1080989E704E005F1040985E731
:1004000030468AE7206ABDE8F08700000FB400B5E7
:100410008DB010A9099000910B904FF0FF300A9019
:1004200000200C90064878440690064878446A46B6
:1004300007900F9909A800F0A5FB0DB05DF814FB1B
:100440007B070000930700002DE9FF5F1D464FF07A
:10045000FF3B91464FF000085F46D5E90146A96988
:1004600001987F1C8847296A824688470028F6D170
:10047000BAF1FF3F0CD0002E24F4C06419DD6006F1
:1004800014D5BAF12B0F09D0BAF12D0F0ED103E01C
:10049000584604B0BDE8F09F44F48064A96901980F
:1004A0007F1C8847761E8246002E02DDBAF1300F8F
:1004B00003D0B9F1000F26D032E0A969761E019869
:1004C0007F1C44F400748847002E824605DDBAF193
:1004D000780F06D0BAF1580F03D0B9F1000F10D041
:1004E0001EE0B9F1000F02D0B9F1100F18D1A969BF
:1004F000761E01987F1C24F40074884782461020E1
:1005000002E0082000E00A20814609E0A96908FB12
:100510000908761E01987F1C44F4007488478246BF
:10052000002E05DD4946504600F018FB0028EDDAA4
:10053000E96901988847A00502D46FF00100A8E797
:10054000E00725D1600613D5600502D5C8F100008B
:1005500000E0404629680A1D2A600968220501D585
:10056000087015E0220701D5088011E008600FE04F
:100570002868011D29600068210502D580F80080E7
:1005800006E0210702D5A0F8008001E0C0F8008055
:1005900038467EE730B505460B462A4613F8014B30
:1005A00012F8010B08B1A042F8D01CB1002802D00B
:1005B0006D1CF1E7284630BD4FF000020429C0F061
:1005C000128010F0030C00F01B80CCF1040CBCF185
:1005D000020F18BF00F8012BA8BF20F8022BA1EBD7
:1005E0000C0100F00DB85FEAC17C24BF00F8012BBC
:1005F00000F8012B48BF00F8012B70474FF00002B4
:1006000000B5134694469646203922BFA0E80C5008
:10061000A0E80C50B1F12001BFF4F7AF090728BFE3
:10062000A0E80C5048BF0CC05DF804EB890028BF5F
:1006300040F8042B08BF704748BF20F8022B11F088
:10064000804F18BF00F8012B704770477047704704
:10065000704710B500F0CAFA006810BD10B5044626
:1006600000F0C4FA046010BD2DE9F0470D4699462C
:100670009246044600F124080168880604D5E06922
:1006800021F01001216000E00120A84201DD471B9C
:1006900000E00027A1697A1902EB0900081AA0619D
:1006A0002078C00602D42046FFF7C4FD002608E0EB
:1006B000D4E901211AF806009047206A401C761CF4
:1006C00020624E45F4DB2078C0060AD52046FFF7AD
:1006D000B1FD06E0D4E9012130209047206A401C9A
:1006E0002062381EA7F10107F4DC07E0D4E90121FC
:1006F00018F805009047206A401C2062281EA5F1CA
:100700000105F3DC2046FFF7ABFD2078000602D59B
:100710000220BDE8F0870120FBE770472DE9FF4F7D
:100720000C461E464FF0FF378BB0D2E90001DDF8D2
:1007300060800A908A46C1F30A5505B93D460021FA
:1007400008464FF00000BAF1000F00F4400005DA4F
:1007500000EB80004FF4400101EA50004FEA90594D
:10076000B9F1010F00DDB9460A9850EA4A000ED0EF
:1007700044F61050A5F2FF3545432F14B8F1000F91
:100780001ED07542291E1EDDC9F100021CE0B8F121
:10079000010F4FF0000001D0302103E0F24305E0EB
:1007A0002154401CB042FBDB304600220021215482
:1007B0000B99C1F80880C1E900200FB0BDE8F08FA7
:1007C000BD1B6D1CDEE74A4600DA694206A800F050
:1007D00071FC06AB93E8070003AB83E807005046C3
:1007E0000A9900F059FD8DE80700A0F500501F3868
:1007F00000900398002D0ADD42F21F014A4608448A
:10080000002303A90390684600F0C2FF09E0A0F5A9
:1008100000504A461F38002303A90390684600F0A1
:10082000CCFF8DE807000004000C03D04FF0FF3030
:10083000410800E01046B8F1000F03D000220092FA
:1008400015461EE0751E05D400F0D4F9303262550D
:100850006D1EF9D5B3460122084302D000227F1C49
:1008600004E02078302801D100227F1E002A099759
:1008700084D01DE0112D07DA00F0BCF9303262554A
:100880006D1C50EA0102F5D1084302D00098C8B1AE
:100890000EE00021681E05E0235C625C6354225474
:1008A000401E491C8142F7DBAB46A81B401E099045
:1008B000002004F80B000B98099AC0F80880C0E9E2
:1008C000002B7AE711264FF0000857E72DE9F04F8B
:1008D00088460446D21D22F0070191B0D1E90001FB
:1008E000CDE90A0104F0FBF902460B98C00F01D0D4
:1008F0002D2007E02068810701D52B2002E0202170
:1009000001EAC000032A099001D0072A05DB03464B
:100910004146204600F0D4F90BE12078800601D54D
:10092000E06900E00620B8F1650F814606D0B8F115
:10093000660F18D0B8F1670F70D131E00020B9F11F
:10094000110F009001DB112301E009F101030AAA54
:1009500001A90CA8FFF7E2FEDDE90C70002609F101
:100960000105834647E001204B4600904FF00047C9
:100970000AAA01A90CA8FFF7D1FEDDE90DB00C9978
:100980005D46002610B909F101000D18B9EB05000C
:1009900003D4C0F1FF3609F10105A5EB09002BE0F6
:1009A000B9F1010F01DA4FF001090020B9F1110F7F
:1009B0000090484601DD112300E003460AAA01A980
:1009C0000CA8FFF7ABFEDDE90C704D460026834610
:1009D000207800070AD4AB4500DA5D4601A8012D56
:1009E00004DD411911F8011C302907D04F4502DA06
:1009F00017F1040F04DA012082460FE06D1EEEE7C6
:100A0000002F02DCED1B3E4403E0781CA84200DD11
:100A10007D1CB81B00F1010A4FF000472078000749
:100A200003D4AA4501DB4FF0FF3A0021B7F1004F94
:100A30000DF143088DF8431024D002202B23002F02
:100A400001DA7F422D230A21021EA0F1010000DC01
:100A50005FB197FBF1FC97FBF1F201FB1C7C1746A1
:100A60000CF1300C08F801CDEEE7A8F1010003709D
:100A70002188090501D5452100E06521A0F1010883
:100A800000F8011C09980FA9A1EB0807FF1D00B190
:100A90000120411901EBEA70A1693844081A401E8F
:100AA000A0612078C00602D42046FFF7C3FB099856
:100AB00028B1D4E901219047206A401C20622078A7
:100AC000C00622D52046FFF7B5FB1EE0002E04DB52
:100AD000B34502DD01A8805D00E03020D4E90121AA
:100AE0009047206A401C2062761CAAF101005FEA50
:100AF000000A0AD100F076F8C0680168405CD4E9C9
:100B000001219047206A401C2062281EA5F10105A2
:100B1000DCDC07E0D4E9012118F8010B9047206ADA
:100B2000401C2062381EA7F10107F3DC2046FFF7C6
:100B300097FB032011B041E6074B70B50D467B448F
:100B400000F0ABF80446284600F026FB10B14FF049
:100B5000FF3070BD204670BD334D00003A2800D2F2
:100B6000303820F02002412A01D3A2F13700884218
:100B700001D34FF0FF3070470268114413780160D1
:100B800018467047D1600549794451610449794458
:100B9000116200211161114600F0D2B8EDFFFFFF94
:100BA000ED000000426842B1016811F8013B23B139
:100BB000521EC0E90012184670470121C160881E0C
:100BC000704742685AB1C368016843B983688B4271
:100BD00005D0491E521CC0E90012002070474FF09A
:100BE000FF3070470048704790020020004870476F
:100BF0007002002030B5B0F10A024FEA900E71F198
:100C000000034EEA817EB0EB0E0061EB91014FEAEA
:100C1000101E4EEA017E10EB0E0041EB11114FEA5F
:100C2000102E4EEA016E10EB0E0041EB11214FEA3F
:100C3000104E4EEA014E10EB0E0041EB11414018F0
:100C400041F100014FEAD00040EA41704FEAD10182
:100C500010EB80054FEA810444EA907444EB0104F0
:100C60006D1944EB0404521BA3414FF0000348BF2D
:100C70000A3200D530BD401C41F1000130BD10B535
:100C8000044600F0B7FA0068005D00F0010010BDF6
:100C900001694A1C02610878704700B58FB0CDE940
:100CA00001310021059105497944CDE90310114630
:100CB0006846FFF723FB0FB000BD0000E5FFFFFF14
:100CC0002DE9F0411F46044603260168072A01F476
:100CD000006004DB08B116A505E016A503E008B125
:100CE00015A500E015A521F010002060A069C01E28
:100CF000A0610FB1401EA0612046FFF79BFA4FB1E3
:100D0000D4E9012138469047206A401C2062C01C6B
:100D1000206206E0206AFAE7D4E9012115F8010B08
:100D20009047761EF8D22046FFF79AFABDE8F08188
:100D30004E414E006E616E00494E4600696E66007F
:100D40002DE9F34F4FF0000A0C4656468DB00120B6
:100D50000C9001F10C000B9062690B9801219047F7
:100D6000051E2DD0252D2CD0216A8847C0B162697F
:100D70000B9801219047216A88470028F7D16269C2
:100D8000411E0B98904700E0761CA1690D9888479A
:100D9000216A88470028F7D1E1690D988847DBE789
:100DA000A1690D988847A842074601D1761CD3E770
:100DB000E1690D9888477F1C02D1BAF1000F6FD00E
:100DC0006CE162690B9800273D46394690472A2816
:100DD00004D162690B98012190470125DFF8D08288
:100DE00062690B9801219047A0F130010A290AD2CB
:100DF0004745E5DC07EB870100EB4107303FDFD4D7
:100E000045F01005ECE7E90601D46FF000476C28C7
:100E10000AD04C2814D0682815D06A280DD0742820
:100E20001CD07A281AD01DE062690B9801219047E6
:100E30006C2802D045F0040514E045F002050DE0F1
:100E400045F020050AE062690B9801219047682867
:100E500002D045F0080505E045F4006562690B988D
:100E600001219047C4E9015765283DD019DC582875
:100E70007AD00CDC452837D004DC252826D0412840
:100E80009ED131E046282FD0472899D12CE05B280D
:100E900077D0612828D063287CD0642823D15AE0F9
:100EA000F7E06F2848D008DC66281DD067281BD0E3
:100EB000692821D06E2816D127E0702845D07328E4
:100EC00068D0752847D078280DD14DE0A1690D98DC
:100ED0008847252805463FF469AFE1690D988847A2
:100EE0006D1C3FF46AAFD9E00D9923466A466FF056
:100EF0000100AFF30080C6E045F0400023464FF00C
:100F000000026060A80736D43EE0E8077FF447AFF0
:100F10002068011D21600068290501D506701BE7C6
:100F2000290701D5068017E7A90703D5F117C0E9FE
:100F3000006111E706600FE745F0400023464FF0DF
:100F400008026060A80716D41EE040F60E0125EAEC
:100F50000100606016E045F0400023464FF00A02B1
:100F60006060A80707D40FE045F040006060A80764
:100F700008D5234610220D996FF00100AFF30080D1
:100F800081E007E0102223460D996FF00100FFF782
:100F90005BFA78E04FF0000963284F46C8464B469D
:100FA000CB4602D05B2807D039E02079C00601D4B7
:100FB0000120A060012732E06269D4F80CB00B98E0
:100FC000012190475E2807D14FF001094946626927
:100FD000D4F80CB00B989047216939B900210A4622
:100FE00003AB43F82120491C0829FADBD8B3216957
:100FF00049B308F1010862690B98012190475D2807
:10100000F4D1B9F1000F09D0002003A951F8202034
:10101000D24341F82020401C0828F7DB03AB2069AD
:10102000002820794FEA40701ED05B462246CDF85A
:101030000080CDE901970D9900286FF0010020DABA
:10104000AFF300801FE0C11703AA00EBD1614B1181
:1010500021F01F0102EB8302411A1368012088402E
:1010600003431360C7E719E00D99224600286FF08B
:101070000100009702DAAFF3008004E0AFF30080D4
:1010800001E0AFF3008000280ADA401C06D10C987A
:1010900020B14FF0FF300FB0BDE8F08F5046FAE7B7
:1010A000E90701D10AF1010A064400200C9053E639
:1010B000CCCCCC0C2DE9F047814616468AB0354899
:1010C00078440DC88DE80D0032487844801C03AC8C
:1010D0000DC884E80D0041F69B300844372190FB91
:1010E000F1F290FBF1F5A5F1800501FB12041B3C28
:1010F00002D56442012000E00020DFF898A080467D
:101100000027FA44AAF1BE0A0EE0E0070AD03246F0
:10111000684607EB470101230AEB810100F04DFB14
:101120008DE8070064107F1C002CEED1194F7F441E
:10113000AE3F19E0E80715D007EB04100DF1180ACF
:1011400090E80E008AE80E00C068F04201D19819BC
:1011500008903246012306A903A800F02EFB03AB3A
:1011600083E807006D10641C002DE3D14FF00103EC
:1011700032466946B8F1000F03A802D000F008FB20
:1011800001E000F01AFBC9E90001C9F808200AB023
:10119000BDE8F08740650000007B00F080007047EC
:1011A00000487047700200207546FFF7F9FFAE4611
:1011B00005006946534620F00700854618B020B563
:1011C000FFF706F8BDE820404FF000064FF000079B
:1011D0004FF000084FF0000B21F00701AC46ACE8DF
:1011E000C009ACE8C009ACE8C009ACE8C0098D464C
:1011F0007047000010B5FFF7F5FC001D10BD00BFE3
:10120000CD4A000010B50446AFF300802046BDE88B
:101210001040FEF7C8BF00004FF0013C50F8042B0F
:1012200051F8043B9A4221D1A2EB0C03934313EAF9
:10123000CC1317D150F8042B51F8043B9A4215D126
:10124000A2EB0C03934313EACC130BD150F8042BFD
:1012500051F8043B9A4209D1A2EB0C03934313EAE1
:10126000CC13DBD04FF00000704700BFD01A01BA9A
:10127000B1FA81F101F0180122FA01F0CB40C1F17D
:101280002001DBB2C0B2C01A2CFA01F3D11A91438B
:1012900011EAC311E6D170475FEA400C08BF91F034
:1012A000000F4FEA8C234FEAC12243EA51514FEA23
:1012B0001C5018BF00F5F0404FEA300018BF41F055
:1012C00000415FEA6C5C00F02980BCF1FF3F08BF81
:1012D00040F080407047130C06BF12044FF0100C12
:1012E0004FF0000C130E04BF12020CF1080C130F88
:1012F00004BF12010CF1040C930F04BF92000CF117
:10130000020CD30F04BF52000CF1010C11464FF038
:101310000002A0F11F00A0EB0C00704711F0004F7D
:1013200008BF704731F000413FF4D5AF0B0C06BF4A
:1013300009044FF0100C4FF0000C0B0E04BF090213
:101340000CF1080C0B0F04BF09010CF1040C8B0FFE
:1013500004BF89000CF1020CCB0F04BF49000CF153
:10136000010CCCF12003A0EB0C0022FA03F302FAEB
:101370000CF241EA030100F10100704720F07F4CBC
:1013800080EA030023F07F47ACEB070303F57C53AF
:1013900000F0004003F1FF032DE980494FEA154BAF
:1013A00009B44FEA144325EA0B4E24EA03480FF22E
:1013B000042606EB132749083E785FEA320203FB56
:1013C0000667C7F5000707FB06F64FEA54374FEAF2
:1013D000D64606F1020607FB066CCCF1005C4FEA2C
:1013E0001C472CEA074C07FB06F40CFB06F504EB44
:1013F00015464FEA961634BF00204FF000404FEAE2
:10140000D13706FB07FC4FEA1C4C0CFB0BF7D21B39
:1014100003FB0CF761EB07010CFB0EF7B0EB074089
:1014200072EB17420CFB08F734BFA2EB0742B2EB9A
:10143000074261EB17414FEA0C444FEA910706FB64
:1014400007FC4FEA1C4C0CFB0BF7B0EBC74072EBF0
:10145000573203FB0CF734BFA2EBC742B2EBC742D3
:1014600061EB57310CFB0EF7B0EBC70072EB577214
:101470000CFB08F734BFA2EBC702B2EBC70261EB6B
:101480005771039F4FEA816141EA921104EBCC044A
:101490004FEAD1374FEA826206FB07FC42EA90121C
:1014A0004FEA80604FEA1C4C0CFB0BF7D21B03FB8E
:1014B0000CF761EB07010CFB0EF7B0EB074072EB8A
:1014C00017420CFB08F734BFA2EB0742B2EB07420E
:1014D00061EB17414FEA8C554FEA910704EB9C24CE
:1014E00006FB07FC4FEA1C4C0CFB0BF7B0EBC740AC
:1014F00072EB573203FB0CF734BFA2EBC742B2EBDF
:10150000C74261EB57310CFB0EF7B0EBC70072EB33
:1015100057720CFB08F734BFA2EBC702B2EBC7024D
:1015200061EB577115EB4C254FEA816141EA92114D
:101530004FEA82624FEAD13742EA901206FB07FC7B
:1015400044F100044FEA80604FEA1C4C0CFB0BF79F
:10155000D21B03FB0CF761EB07010CFB0EF7B0EBA2
:10156000074072EB17420CFB08F734BFA2EB0742AF
:10157000B2EB074261EB174115EB1C154FEA8131C5
:1015800041EA92414FEA823242EA90424FEA803089
:101590004FEA0C7644F1000448EA03434EEA0B4854
:1015A0004FF0000EB2EB080C71EB030724BF62464C
:1015B00039464EEB0E0E4FF0000B001852414941D8
:1015C0004BEB0B0BB2EB080C71EB03077BF1000B41
:1015D00024BF624639464EEB0E0E4FF0000B00184A
:1015E000524149414BEB0B0BB2EB080C71EB03077B
:1015F0007BF1000B24BF624639464EEB0E0E51EADA
:10160000020718BF46F0010616EB0E7655F10002F0
:1016100054F1000103D5BDE88901BDE80088BDE8AB
:101620008901BDE80048B619524141EB0101A3F11F
:101630000103704780807F7E7D7C7B7A7978777626
:1016400076757473727171706F6E6E6D6C6C6B6A9F
:101650006A6968686766666564646363626161603D
:10166000605F5F5E5E5D5D5C5C5B5B5A5A595958BA
:101670005857575656555555545453535252525124
:10168000515050504F4F4F4E4E4D4D4D4C4C4C4B7A
:101690004B4B4A4A4A4949494848484747474746C1
:1016A00046464545454444444443434343424242FD
:1016B00042414141002B9C4630D477002BD01CB5D1
:1016C0004FEA370703B44FF010004FF01001BAF1A2
:1016D000000F06D0BCF1000FDCBF40F0080040F066
:1016E00008014FF000000FBCBDE810400BF1010BEA
:1016F000BBF1010F08BF5FEA170722BF12F1010219
:1017000011F101014FF0004143F1000300F00040EE
:1017100043EA00007047F9D35708D0E746EA064687
:1017200013F1400F4FEA16461FDD13F1200FDFBF04
:1017300016430A46002120335B42BED0C3F1200786
:1017400046EA064602FA07F74FEA164646EA070651
:10175000C3F1200722FA03F201FA07F721FA03F195
:101760004FF0000342EA0702A7E746EA020646EA0C
:1017700006464FEA164646EA0106BCBF46EA06465A
:10178000360C4FF000034FF000024FF0000194E7D9
:101790002DE9804C9A46934670B491E8380007C80A
:1017A00031EA400C48BF34EA430C03D5FFF7E6FDAD
:1017B000FFF780FFF0BCBDE8008C2DE9804C9A4615
:1017C000934670B491E8380007C810F0804F08BF06
:1017D00013F0804F03D100F005F8FFF76BFFF0BC6A
:1017E000BDE8008C20F07F4780EA030023F07F4CA7
:1017F00007EB0C03A3F57C5300F00040A3F1FE03BC
:1018000092F0000F00F0B38095F0000F00F07780A9
:101810002DE901494FEA11404FEA144621EA0048F8
:1018200000FB06FC24EA064708FB06F607FB08F85F
:1018300000FB07F718EB06484CEB164C4FEA124B2F
:1018400018EB07484FEA15464CEB174022EA0B4EBF
:101850000BFB06FC25EA06470EFB06F607FB0EFE11
:101860000BFB07F71EEB064E4CEB164C4FF0000639
:101870001EEB074E4CEB174B18EB0B0840F100002A
:1018800018EB0E0B58EB000840F100008F1A4FF0D8
:1018900000013CBFC943661B14BFB5EB040C00211B
:1018A0003CBFC943F61B4FEA17444EEA8E0E27EAA7
:1018B00004454FEA1C4704FB07622CEA074C05FB72
:1018C00007F70CFB05F604FB0CFC16EB074642EB96
:1018D000174216EB0C4642EB1C421BEB060658EB7C
:1018E0000202414146EA9E0601D5BDE80189B619CA
:1018F000524141EB0101A3F10103BDE801894FEA27
:1019000014454FEA114724EA054621EA074C05FB36
:1019100007F406FB07F70CFB06F105FB0CFC11EBCB
:10192000074144EB17444FEA124711EB0C4144EBDB
:101930001C4422EA074C05FB07F206FB07F70CFBE9
:1019400006F605FB0CFC16EB074642EB174216EBBE
:101950000C4642EB1C456A1854F1000148BF704721
:10196000B619524141EB0101A3F10103704795F013
:10197000000F37D04FEA11424FEA144721EA0246DE
:1019800024EA074C02FB07F106FB07F70CFB06F401
:1019900002FB0CFC14EB074441EB17414FEA1547DF
:1019A00014EB0C4441EB1C4125EA074C02FB07F504
:1019B00006FB07F70CFB06F602FB0CFC16EB0746D2
:1019C00045EB174516EB0C4645EB1C42121951F13D
:1019D000000148BF7047B619524141EB0101A3F124
:1019E000010370474FEA14454FEA114724EA0546C0
:1019F00021EA074C05FB07F106FB07F70CFB06F293
:101A00004FF0000605FB0CFC12EB074241EB1741BF
:101A100012EB0C4251EB1C4148BF7047921841EB4E
:101A20000101A3F10103704770B51048006810F080
:101A3000FF4F18D10E4C607804F054FC0D4A0E4B49
:101A400004F0A0FC04F058F905460C484FF0FF31B3
:101A5000006805F070FB2A46002103F09BFF6078C8
:101A600010B10020607070BD0120FBE70000002075
:101A7000180000209C742D3852C1F03F3C0000201B
:101A800010B5084C40B1410807480268D162C160F6
:101A900001F0E6FC012003E0034801F009FD00200D
:101AA000207010BD18000020E400002070B50D4625
:101AB000064600240BE000BF35F82400FFF7E0FFE6
:101AC00005EB8400408800F019FF641CE4B2B442C6
:101AD000F2D3BDE870400020FFF7D2BFFEE7000060
:101AE00000B58BB000200121CDE9060103900590DF
:101AF000009001900290089104906946074800F018
:101B000053FA06480068416941F0020141610BB097
:101B100002485DF804EB00F03FBD000068000020C3
:101B200010B5024612488AB00C460078082100F52C
:101B30008070009000200290CDE903018DF8140020
:101B40000C49104605F022F905F084F806900A4980
:101B5000204605F01BF905F07DF8ADF81C0008AB38
:101B600006AA6946054800F0B7F90AB010BD0000A2
:101B70001C00002000007A44000020416800002082
:101B800070B501F06DF80D4C00256168421A0C48E3
:101B90004FF48041B2F5FA7F0AD96278002A06D163
:101BA000012201F057F8074805600120607070BD00
:101BB0006570BDE87040002201F04CB81C000020A8
:101BC000000C014000000020014800F087BD00002B
:101BD000BC01002030B590F840500124AC40C56BEA
:101BE0006C60046863604368102B036803D09960DD
:101BF0000068C26030BD9A600068C16030BD704747
:101C000072B6FEE706490020C8610648016941F046
:101C100004010161016941F0400101617047000068
:101C20000002002000200240064A0021D16106493E
:101C30000A6942F002020A614861086940F0400006
:101C4000086170470002002000200240044B00227F
:101C5000DA61044A136943F001031361018070479C
:101C6000000200200020024014480022C168CB0678
:101C7000134904D5CA6942F00202CA611022C3683E
:101C80005B0705D5CB6943F00103CB6142F0040249
:101C9000C369DB0707D0CB6943F00403CB61C1699B
:101CA00021F00101C161A2F58071013901D0C2604A
:101CB0007047C16921F00101C161704700200240F5
:101CC0000002002070B5054600F0CAFF0646114C20
:101CD00009E0681C07D025B100F0C2FF801BA842B4
:101CE00001D9032070BDE068C007F2D1E06880062A
:101CF00001D52020E060E068C00605D4E069C00797
:101D000002D1E068400703D5FFF7AEFF012070BDA8
:101D1000002070BD0020024038B5194A1949A2F1CF
:101D2000100000F085F8164C164D103C28B303F057
:101D300033F990B122692968206800F0A7F812A051
:101D4000FEF76CFA286804F0EFFD22690092024663
:101D50000B460FA02168FEF761FA03F047FA154918
:101D60000860052000F0CAFD03F08AFF12490860F0
:101D7000BDE83840642000F0C1BD10A0E0E70000DD
:101D8000440000204C000020536176653A0D0A00A3
:101D900070616972733A2564092C7A65726F5F61AC
:101DA0006E676C653A252E3466092C6469723A2593
:101DB000640D0A0064000020480000205265616440
:101DC0003A0D0A0000B585B000F048FE0749002032
:101DD000029100900221CDE9031004A9684600F0A9
:101DE0009FFD00F0F1FD05B000BD00000078000887
:101DF00010B586B0044600F031FE002001210294A7
:101E00000090CDE9031004A9684600F089FD00F0B8
:101E1000DBFD06B010BD000004480168B1F1A53F2C
:101E200001D000207047007970470000007C000856
:101E3000074B10B51C68B4F1A53F01D0012010BDBF
:101E40005C68046098680860D8681060002010BD65
:101E50000078000870B50C4D04462846FFF7C8FF0F
:101E600000F0FCFD4FF0A53200232946022000F0CF
:101E7000B5FD22460023291D022000F0AFFDBDE87C
:101E8000704000F0A1BD0000007C00082DE9FF417A
:101E9000104D074614460E462846FFF7A9FF00F0EE
:101EA000DDFDCDE902644FF0A530CDE90007002447
:101EB0006E4600BF56F8242005EB84010023022063
:101EC00000F08CFD641CE4B2042CF3D300F07CFD24
:101ED000BDE8FF8100780008F0B590F82050046854
:101EE000A468012D05D0022D03D0416A41F4802160
:101EF00057E014F0406F01D1E5004FD5C4F3016401
:101F00000125A5401D608D684FF4C0739DB1CE685A
:101F100035434E6845EAC605066803EB0417F551DC
:101F20004FF4C275076805EB04150E697E51097DF3
:101F3000012905D009E00E88CD6845EA4655EBE752
:101F400001684E5946F480764E511179D57956790B
:101F500041EA056195792D0445EA062529434FF4A8
:101F6000C676056806EB0416A9511178D57841EAC2
:101F70000561957852782D0445EA022211434FF409
:101F8000C475026805EB04155151006803EB041198
:101F9000425842F0010242500020F0BD416A41F433
:101FA000001141620120F0BD10B590F820300268A8
:101FB000012B07D0022B05D0416A41F480214162F8
:101FC000012010BDD2F8000240F00100C2F800026A
:101FD000087D00F01F0301209840D2F81C32834393
:101FE000C2F81C32CB69B3B9D2F80C328343C2F8C1
:101FF0000C328C894B6864F31F434C6902EBC404B8
:10200000C4F840320C890B6864F31F434C6902EB3F
:10201000C404C4F84432CB69012B16D1D2F80C3277
:102020000343C2F80C320C884B6864F31F434C69BD
:1020300002EBC404C4F840320C89CB6864F31F433C
:102040004C6902EBC404C4F844328B69002BD2F80B
:1020500004320FD053EA0003C2F804320B69002B9C
:10206000D2F8143208D00343C2F81432096A0129A5
:1020700004D008E08343EFE78343F5E7D2F81C126E
:102080000143C2F81C12D2F8000220F00100C2F88D
:102090000002002010BD704770B590F82040012C60
:1020A00005D0022C03D0416A41F4802128E0046865
:1020B00009B32469A40720D04FF4D874056804EB51
:1020C00001142D5915F00405956005682D591AD095
:1020D000ED08556005682C5904F00204D4604FF4F3
:1020E000DA74056804EB01142E5906F00F06082E69
:1020F0000CD308250DE0E468DCE7416A41F40011E7
:102100004162012070BD6D0D1560E3E72D5905F0AA
:102110000F05156105682D59C5F3072595610568FB
:102120002C59240C54614FF4DC72046802EB011248
:10213000A4581C700468A458240A5C700468A4584D
:10214000240C9C700468A258120EDA704FF4DE72F0
:10215000046802EB0112A4581C710468A458240AF4
:102160005C710468A458240C9C710468A258120E77
:10217000DA71006829B1016941F020010161002094
:1021800070BDC16841F02001C160F8E72DE9F05F42
:102190000546006800244669D0F804908768D0F8A6
:1021A0000CB0D0F810A0D0F81880F10748D0F9078B
:1021B00014D001218160B80703D5284600F019FA30
:1021C0000CE0780702D54FF4006407E0380702D529
:1021D0004FF4805402E0284600F00AFAF80516D5BC
:1021E00029684FF480708860B80503D5284600F050
:1021F00002FA0CE0780502D544F4005407E03805F3
:1022000002D544F4804402E0284600F0F3F9F803D4
:1022100016D529684FF480308860B80303D5284666
:1022200000F0EBF90CE0780302D544F4004407E039
:10223000380302D544F4803402E0284600F0DCF98B
:10224000300707D55FEACB6004D52968102044F435
:102250000074C86070074FF0080707D55FEA0B707D
:1022600004D52868C760284600F05AF9B00706D59B
:102270002868C068800702D0284600F053F970062D
:1022800007D55FEACA6004D52968102044F4806449
:102290000861B00607D55FEA0A7004D528680761AF
:1022A000284600F075F9F00606D528680069800711
:1022B00002D0284600F06DF9B00308D55FEAC96086
:1022C00005D5296810204860284600F063F9F0031E
:1022D00007D55FEA097004D528684760284600F0F2
:1022E0008DF9300446D55FEA497040D5F00504D534
:1022F0005FEAC87001D044F00104B00504D55FEA7C
:10230000887001D544F00204700504D55FEA487076
:1023100001D544F00404300529D518F0700F26D0FB
:1023200008F07000402815D006DC102809D02028BD
:102330000AD0302816D10AE050280ED0602811D1DA
:102340000EE044F008040DE044F010040AE044F00C
:10235000200407E044F0400404E044F0800401E07D
:1023600044F480742868816921F0700181612968D2
:1023700004204860002C05D0686A20436862284623
:10238000FFF789FEBDE8F09F70B5040003D094F814
:10239000200010B104E0012070BD204600F082F85A
:1023A0002068016841F00101016000F059FC054618
:1023B000052604E000F054FC401B0A2811D82068D0
:1023C0004068C007F6D02068016821F00201016072
:1023D00000F046FC05460BE000F042FC401B0A28DA
:1023E00006D9606A40F40030606284F82060D2E769
:1023F000206840688007EFD4207E012820680168AB
:102400003DD021F080010160607E012820680168D4
:1024100038D021F040010160A07E012820680168C9
:1024200033D021F020010160E07E0128206801689E
:102430002ED041F010010160207F01282068016842
:1024400029D021F008010160607F0128206801681F
:1024500024D021F004010160D4E902010843D4E949
:102460000412114308436168491E08432168C8618A
:1024700000206062012084F82000002070BD41F03F
:102480008001C0E741F04001C5E741F02001CAE703
:1024900021F01001CFE741F00801D4E741F0040139
:1024A000D9E7000010B586B000210091019102919A
:1024B00003910068174988422AD11748C16941F041
:1024C0000071C161C16901F000710491816941F03D
:1024D000040181618069114C00F0040004904FF404
:1024E000006000906946204600F0CCFAA0140090ED
:1024F00002200190032003906946204600F0C2FAB2
:1025000000221146142000F0C7FE142000F0B6FE91
:1025100006B010BD006400400010024000080140F9
:102520007047000070B588B0164B6A460021FFF76F
:10253000B3FD00281BD113480099134E134DA0F191
:102540000804B1F5807F14D0B1F5007F0FD1217858
:1025500004290CD900EB410030F90A0C04F0B6FB59
:10256000314604F081FA286000F07AFB606008B020
:1025700070BD21780429FAD800EB410030F9020C33
:10258000ECE700002400002000007A440000002056
:10259000704770477047000070B5044690F82000FF
:1025A000012804D0606A40F40020606218E0022034
:1025B00084F820002068016821F00101016000F02A
:1025C0004FFB05460EE000BF00F04AFB401B0A2807
:1025D00008D9606A40F400306062052084F8200069
:1025E000012070BD20684068C007EDD1606270BDF9
:1025F000704770477047704770477047704710B515
:1026000090F821100022022905D00421816380F86E
:102610002020012010BD01680B6823F00E030B6021
:1026200001680B6823F001030B6090F84030C46B25
:10263000012101FA03F3636080F8211080F8202063
:10264000104610BD10B590F821100024022903D0C7
:102650000421816301243DE001680A6822F00E0232
:102660000A6001680A6822F001020A601A4A0168D9
:10267000914201D1012121E0174A1432914201D146
:1026800010211BE0144A2832914201D1891515E02E
:10269000114A3C32914201D189140FE00E4A503266
:1026A000914202D14FF4803108E00B4A64329142EA
:1026B00002D14FF4801101E04FF08071064A083AD0
:1026C0005160012180F82110002180F82010416B19
:1026D00001B18847204610BD080002402DE9F05F97
:1026E000C16B0C6801680B68D0F840C0042202FA84
:1026F0000CF2494DDFF824A1494E4A4FDFF828B1CA
:10270000DFF828E122422CD05A072AD50A6892061F
:1027100003D40A6822F004020A600168A94201D1C8
:10272000042219E0514501D1402215E0B14202D105
:102730004FF4806210E0B94202D14FF480420BE0C6
:10274000594502D14FF4802206E0714502D14FF481
:10275000800201E04FF080622F4908394A60C16A67
:102760003BE04FF0020808FA0CF818EA040F4FF0AB
:1027700000094FF0010235D05FEA837832D50B684B
:102780009B0605D40B6823F00A030B6080F8212018
:102790000168A94201D1022219E0514501D120224C
:1027A00015E0B14202D14FF4007210E0B94202D1FB
:1027B0004FF400520BE0594502D14FF4003206E0CD
:1027C000714502D14FF4001201E04FF0007212493E
:1027D00008394A6080F82090816A00291AD0BDE843
:1027E000F05F0847082505FA0CF5254212D01B07B3
:1027F00010D50B6823F00E030B6090F84010C36BEC
:1028000002FA01F15960826380F8212080F820905B
:10281000016BE2E7BDE8F09F080002401C000240A7
:102820003000024044000240580002406C00024068
:1028300030B528B308C8134914221944B1FBF2F18A
:102840008900C16310498163022141771A6843F608
:10285000F0718A43D0E900142143D0E902452C43AA
:10286000214304692143446921438469214311437D
:10287000196000214163012242770177084630BD8B
:10288000012030BDF8FFFDBF0000024070B50446D6
:1028900090F82000002501280CD0012084F82000A9
:1028A00094F821600020012E06D084F82000022533
:1028B000284670BD022070BD022684F82160A06306
:1028C0002068066826F0010606602046FFF782F9B8
:1028D000E06A00282068016802D041F00E0106E09D
:1028E00021F0040101602068016841F00A010160E3
:1028F0002068016841F001010160D9E770B5044624
:1029000000F0AEF90546601C02D00448007804448B
:1029100000F0A6F9401BA042FAD370BD08000020C9
:102920002DE9F047054626480F460126017E01297C
:102930000FD00121814601762868DFF888804CF2AB
:102940005034022808D0A2462046FFF7BBF9A8B1B0
:1029500031E00220BDE8F0872046FFF7B3F908BB5D
:102960000120FFF74FF92046FFF7ACF9D8F8101017
:10297000064621F00401C8F810101CE04FF0FF30AB
:102980003860AC6811E02046FFF74EF95046FFF77B
:1029900099F9D8F81010060021F00201C8F81010BB
:1029A00001D03C6007E004F58064D5E9020100EB4A
:1029B0008120A042E7D8002189F818103046C9E7E5
:1029C00000020020002002400348016941F080011C
:1029D0000161002070470000002002402DE9F05FF7
:1029E00007461C4888460024017E15461E460129DC
:1029F00009D00121814601764CF2503A5046FFF74A
:102A000061F918B122E00220BDE8F09F012F02D049
:102A1000022F00D00427D346DFF83CA0220128462D
:102A20003146FDF7E8FB81B208EB4400FFF70EF9F1
:102A30005846FFF747F9DAF8102022F00102CAF8E9
:102A4000102018B9641CE4B2BC42E7D3002289F814
:102A50001820D9E70002002000200240064900208B
:102A60000A69120607D5054A4A60054A4A6009699B
:102A7000090600D501207047002002402301674568
:102A8000AB89EFCD2DE9F84FDFF89C910024A9F137
:102A9000040B23460F2709F1040AABF1040EBBE037
:102AA0000125A5402A40AA4276D1DFF880C14E68B0
:102AB000A6EB0C0866452BD00DDC032E34D005DCCC
:102AC00036B3012E19D0022E2FD11BE0112E16D0B5
:102AD000122E2AD119E0B8F5881F19D006DCB8F5F6
:102AE000803F15D0B8F5801F1FD111E0B8F5001F49
:102AF0000ED0B8F5041F18D10AE0CB6815E0CB68FA
:102B00001B1D12E0CB6808330FE0CB680C330CE0E0
:102B10008B682BB1012B4FF0080303D0456104E013
:102B2000042302E0056100E00023FF2A01D80646E5
:102B300001E000F104064FEA840501D9A5F1200562
:102B4000D6F8008007FA05FC28EA0C0803FA05F518
:102B500048EA0508C6F800804D68ED005BD5344DA5
:102B6000AE6946F00106AE61AD6924F0030605F0DA
:102B7000010500952F4D06EB050CDCF80850A60763
:102B8000360F07FA06F825EA0805DFF8AC8040455D
:102B900003D14FF0000810E03DE0DFF8A080404591
:102BA00002D14FF0010808E0DFF89480404502D1DF
:102BB0004FF0020801E04FF0030808FA06F848EA6F
:102BC0000508CCF808804D68D9F80060ED024D4644
:102BD00001D5164300E096432E604D68DAF8006098
:102BE000AD02554601D5164300E096432E604D6870
:102BF000DBF80060AD035D4601D5164300E0964367
:102C00002E604D68DEF80060ED03754601D5164371
:102C100000E096432E60641C0A6832FA04F57FF4E3
:102C20003FAFBDE8F88F000008040140000011101C
:102C3000001002400000014000080140000C01406B
:102C400000100140C26821EA02030A4043EA02413F
:102C5000016170470AB1016170470904FBE7000098
:102C600001488068704700000800002070B504002B
:102C700025D094F83D00002520B984F83C5020462A
:102C800000F076FA242084F83D002068016821F0E5
:102C9000010101602068016841F400410160206881
:102CA000016821F40041016000F028FB4D4A616891
:102CB000914201D84C4900E04C49884201D20120A0
:102CC00070BD4B492368B0FBF1F15E6826F03F060A
:102CD0000E435E606368934206D94FF4967359437E
:102CE0004FF47A73B1FBF3F12368491C1E6A26F096
:102CF0003F06314319626168914210D84900401E75
:102D0000B0FBF1F2521CC2F30B02042A01D20420E0
:102D100022E0B0FBF1F0401CC0F30B001CE0A26805
:102D2000F2B301EBC10303EB0116431EB3FBF6F351
:102D30005B1C43F480431B0549D092B301EBC102F5
:102D400002EB0111401EB0FBF1F0401CC0F30B0080
:102D500040F4804040F400402168CA694CF6FF739B
:102D60009A431043C861D4E9071001432068026800
:102D700022F0C00211430160D4E90301014320683D
:102D8000826848F2FF339A4311438160D4E9050118
:102D900008432168CA6822F0FF021043C86001E0BE
:102DA0000EE016E02068016841F001010160256431
:102DB000202084F83D00256384F83E50002070BD3B
:102DC00001EB4106431EB3FBF6F35B1CB3E70120A6
:102DD000C2E701EB4101401EB0FBF1F0401CC0F323
:102DE0000B00B7E7A086010080841E0000093D00AB
:102DF00040420F002DE9F84F0025DDF82890984655
:102E000017468A4604460095FFF72AFF064694F8BF
:102E10003D0020287AD119230122864920460096B8
:102E200001F0DEF80028F5D194F83C0001286DD0BF
:102E3000012084F83C0020680168C90703D10168BB
:102E400041F0010101602068016821F40061016026
:102E5000222084F83D00102084F83E00256467623B
:102E6000A4F82A80608D20857348E06233464A4684
:102E70005146204600F0C4FF00287CD1208DDFF8A9
:102E8000BC81202768B1012814D00228206801687D
:102E90001ED041F480610160206841698069009022
:102EA000BBE02068416981690091016841F40071CB
:102EB0000160B2E02068016821F48061016072B6AF
:102EC0002068416981690091016841F400710AE05C
:102ED00041F40061016072B6206841698169009126
:102EE000016821F48061016062B696E0032865D82C
:102EF00001280CD002284B464FF0000241462046E4
:102F000000960BD001F06CF8A8BB0CE090E03246C4
:102F10004946204601F00AF968BB71E001F060F80B
:102F200048BB72B633E02068016821F4806101601B
:102F300072B620680069616A0870606A401C60624D
:102F4000208D401E2085608D401E60853C4846F2E5
:102F5000A8110068B0FBF1F0C0EBC00000EB8000EE
:102F60000090401E009007D020684069C043400791
:102F70000DD50098F5E727E044F8305F6773A57337
:102F8000206940F02000206162B625731CE02068B3
:102F9000016841F40071016020680069616A08708D
:102FA000606A401C6062218D491E2185618D491E29
:102FB000618562B621680969017025E0324649469B
:102FC000204601F0B3F810B10120BDE8F88F206869
:102FD0000069616A0870606A401C6062208D401E52
:102FE00081B22185608D401E608520684269D24390
:102FF000520712D4032903D1016821F480610160D2
:1030000020680069616A0870606A401C6062208DF7
:10301000401E2085608D401E6085208D00287FF435
:1030200065AF84F83D7084F83E5084F83C50CCE79E
:103030000220CAE7020010000000FFFF04000100A8
:10304000140000202DE9F84F1F4690468A4604469A
:10305000DDF82890FFF704FE054694F83D0020288F
:103060007FD11923012240492046009500F0B8FF86
:10307000002876D194F83C00012872D0012084F811
:103080003C0020680168C90703D1016841F00101D3
:1030900001602068016821F400610160212084F84A
:1030A0003D00102084F83E0000262664C4F82480E9
:1030B0006785608D20852D48E0622B464A46514643
:1030C000204600F013FF90B92068416980690090A4
:1030D00036E02A464946204601F060F850B1206C9F
:1030E000042804D12068016841F4007101600120C6
:1030F000BDE8F88F606A216800780861606A401C4A
:103100006062618D491E6185218D491E89B22185CC
:1031100022685369DB435B070BD451B1007810611F
:10312000606A401C6062608D401E6085208D401E7C
:1031300020852A464946204600F026FF0028CED1A9
:10314000208D0028C5D154F83D0B016841F4007171
:103150000160202004F81E09E67766770020C7E7A3
:10316000FFE70220C4E70000020010000000FFFF9C
:1031700010B586B000210091019102910391006881
:103180000F4988421AD10F4CA06940F00800A06195
:10319000A069694600F008000490C0200090122049
:1031A0000190032003900848FFF76CFCE06940F4AD
:1031B0000010E061E06900F40010049006B010BD5A
:1031C0000054004000100240000C01400248816899
:1031D000027811448160704708000020074810B54C
:1031E000016841F010010160032000F075F8002033
:1031F00000F006F800F024F8002010BD0020024086
:1032000070B50D4D04464FF47A712878B1FBF0F09B
:103210000A490968B1FBF0F000F090F848B9102CA9
:1032200007D200222146501E00F036F800206C60C4
:1032300070BD012070BD00000800002014000020B7
:103240000C4808B5816941F001018161816901F093
:1032500001010091C16941F08051C161C06900F074
:10326000805000900448416821F0E06141F0007115
:10327000416008BD0010024000000140002809DB49
:1032800000F01F02012191404009800000F1E02080
:10329000C0F8001170470000F0B40E4B1B680C46DC
:1032A000C3F30223C3F10705042D00D90425191D1A
:1032B000072901D2002300E0DB1E012606FA05F1F2
:1032C000491E214099409E40761E16403143F0BC75
:1032D00001F019BD0CED00E0064900F00702086896
:1032E0004FF6FF03184040EA0220034A10430860EB
:1032F000704700000CED00E00000FA0504480549A5
:1033000000684968044AC1F30221515CC840704713
:103310001400002000100240B27100080448054962
:1033200000684968044AC1F3C221515CC840704733
:103330001400002000100240B271000810B5401EB9
:10334000B0F1807F01D3012010BD4FF0E024606117
:103350000F21601701F0D7FC0020A0610720206139
:10336000002010BD7047704770B590F83C20012ACE
:1033700023D0012480F83C40022280F83D200368DD
:103380005A689D6822F070060A6832435A600C4BF6
:1033900002689A4205D0B2F1804F02D0094B9A429E
:1033A00004D1496825F080031943916080F83D40BD
:1033B000002180F83C10084670BD022070BD00005E
:1033C000002C01400004004010B5040003D094F824
:1033D0003D0010B107E0012010BD002084F83C0042
:1033E000204600F01FF8022084F83D00211D2068CF
:1033F00001F088F9012084F8460084F83E0084F842
:103400003F0084F8400084F8410084F8420084F8CA
:10341000430084F8440084F8450084F83D0000200F
:1034200010BD000008B500680B49884212D10B4856
:10343000816941F4006181618069002200F40060CB
:10344000009001211920FFF727FFBDE8084019204F
:10345000FFF714BF08BD0000002C0140001002401F
:1034600090F83D10012901D001207047022180F819
:103470003D100168CA6842F00102CA6000680A494A
:10348000884205D0B0F1804F02D00849884204D16B
:10349000816801F00701062903D0016841F00101AC
:1034A0000160002070470000002C01400004004033
:1034B0000168CA6822F00102CA6001680A6A41F222
:1034C00011131A4207D10A6A9B101A4203D10A68E3
:1034D00022F001020A60012180F83D1000207047AF
:1034E00070B5044690F83C000025012817D001264D
:1034F00084F83C60022084F83D002068826822F055
:10350000770222F47F4282600868502838D00DDCB0
:1035100020284FD005DC90B3102811D14AE00220BA
:1035200070BD302846D040280AD13BE060282FD01B
:1035300070280DD0B0F5805F03D0B0F5005F12D0D9
:10354000012584F83D60002084F83C00284670BDC9
:10355000CB68D1E90121206801F00FF9206881686A
:1035600041F0770109E0CB68D1E90121206801F041
:1035700004F92068816841F480418160E1E719E045
:10358000CA684968206801F0ADF95021206806E05A
:10359000CA684968206801F0B6F96021206801F026
:1035A000F6F8CEE7CA684968206801F09BF9402127
:1035B0002068F4E7226801461046F0E7704770B5CE
:1035C0000446006801694FF00005C943890715D416
:1035D000C168C943890711D4E91E01610120207720
:1035E000206880698007204602D0FFF7E7FF04E0EB
:1035F00000F0BCF8204600F05FF9257720680169EB
:10360000C943490717D4C168C943490713D46FF0A8
:1036100004010161022020772068806910F4407F56
:10362000204602D0FFF7CAFF04E000F09FF82046D2
:1036300000F042F9257720680169C943090716D4CB
:10364000C168C943090712D46FF008010161042061
:1036500020772068C0698007204602D0FFF7AEFFC0
:1036600004E000F083F8204600F026F92577206872
:103670000169C943C90617D4C168C943C90613D42F
:103680006FF010010161082020772068C06910F4F4
:10369000407F204602D0FFF791FF04E000F066F87B
:1036A000204600F009F9257720680169C943C90758
:1036B00008D1C168C943C90704D1891E01612046E8
:1036C00000F046F920680169C943090609D4C168B8
:1036D000C943090605D46FF0800101612046FFF758
:1036E00041FE20680169C943490609D4C168C9433C
:1036F000490605D46FF040010161204600F029F928
:1037000020680169C94389060BD4C168C943890689
:1037100007D46FF0200101612046BDE87040FFF73B
:1037200022BE70BD00B585B00021009101910291CB
:1037300003910068B0F1804F11D10A48816941F0CE
:10374000040181618069694600F00400049007204B
:1037500000900220019003900348FFF793F905B011
:1037600000BD00000010024000080140704770B525
:10377000044690F83C0000260D4601280FD0012099
:1037800084F83C006AB1042A1DD0082A2FD00C2AE4
:103790003FD00126002084F83C00304670BD022056
:1037A00070BD206800F0FCFF2068816941F00801CD
:1037B00081612068816921F004018161206881694B
:1037C0002A69114311E0206801F012F8206881692C
:1037D00041F4006181612068816921F48061816127
:1037E000206881692A6941EA02218161D2E7206863
:1037F00001F02AF82068C16941F00801C161206820
:10380000C16921F00401C1612068C1692A691143BD
:1038100011E0206801F044F82068C16941F40061BA
:10382000C1612068C16921F48061C1612068C169FA
:103830002A6941EA0221C161ACE710B5040003D056
:1038400094F83D0010B107E0012010BD002084F87D
:103850003C00204600F01EF8022084F83D00211DA7
:10386000206800F04FFF012084F8460084F83E00F5
:1038700084F83F0084F8400084F8410084F8420056
:1038800084F8430084F8440084F8450084F83D003F
:10389000002010BD08B50068B0F1804F08D1054880
:1038A000C16941F00101C161C06900F001000090EF
:1038B00008BD0000001002407047000010B504462B
:1038C000022249B104290ED0082913D094F84100EE
:1038D000012816D0012010BD94F83E000128F9D12E
:1038E00084F83E200FE094F83F000128F2D184F8DC
:1038F0003F2008E094F840000128EBD184F84020F4
:1039000001E084F841200122206800F029FF0E49DF
:103910002068884203D1426C42F40042426420682D
:10392000884205D0B0F1804F02D00849884204D1C6
:10393000816801F00701062903D0016841F0010107
:103940000160002010BD0000002C01400004004078
:103950007047704738B5044690F84200202801D0DF
:10396000022038BD61B15AB101202063002060639C
:10397000204601F04BF90028F3D1216B012901D039
:10398000012038BD21680A684968009121680C311E
:1039900051E8002F42F0100241E80023002BF5D13E
:1039A00038BD000010B5094A016891420CD100F001
:1039B00011F8074801F064FE10210548FCF7FCFDF2
:1039C000BDE8104001F070B910BD000000380140A2
:1039D0003402002010B504460068406994F8411094
:1039E000C0F3C010212911D180B12068143050E8F3
:1039F000001F21F0800140E80012002AF5D1A06BE1
:103A000008B1FEF7FCFD204601F035F8206840695A
:103A100094F84210C0F38010222911D180B120689F
:103A2000143050E8001F21F0400140E80012002A45
:103A3000F5D1E06B08B1FEF7E2FD204600F0F4FF9F
:103A4000002010BD70470000F8B501680446086802
:103A5000CA684B6910F00F0F4FF0000559D003F002
:103A6000010602F49077374365D0C10705D0D10530
:103A700003D5616C41F001016164410705D5D907A7
:103A800003D0616C41F002016164810705D5D9075B
:103A900003D0616C41F004016164010707D502F0B5
:103AA0002001314303D0616C41F008016164616C15
:103AB00000293AD0800604D5900602D5204600F0B1
:103AC000E8FF20684069616CC0F38010090700D4EA
:103AD00060B3204600F0A8FF20684069400621D569
:103AE0002068143050E8001F21F0400140E8001227
:103AF000002AF5D1E06BA8B16D494163E06BFEF798
:103B0000A1FD002811D0E06B416B01B0BDE8F04091
:103B1000084783060FD593060DD52046BDE8F8402B
:103B200000F0B7BF2046FFF78DFFF8BD2046FFF736
:103B300089FF6564F8BD266B2023012E7CD1C60663
:103B40007AD5D60678D508684868009048694FF05D
:103B50000206400640D5E16B086840680004000C8E
:103B6000E8D0A28D8242E5D9E085886920282DD051
:103B700020680C3050E8001F21F4807140E80012EA
:103B8000002AF5D12068143050E8001F21F001010F
:103B900040E80012002AF5D12068143050E8001FD8
:103BA00021F0400140E80012002AF5D184F84230AB
:103BB000256320680C3050E8001F21F0100140E818
:103BC0000012002AF5D1E06BFEF719FD6663A08DA7
:103BD000E18D401A81B22AE0A08DE18D401A81B2B8
:103BE000E08D0028A6D00029A4D022680C3252E82B
:103BF000000F20F4907042E80007002FF5D12068F4
:103C0000143050E8002F22F0010240E80027002F76
:103C1000F5D184F84230256320680C3050E8002F3D
:103C200022F0100240E80023002BF5D16663204605
:103C3000FFF7B8FEF8BDFFE705062BD5150629D519
:103C400094F841002128F5D1A068B0F5805F01D13A
:103C50002069B0B1206A411C216221680078486067
:103C6000E08C401E0004000CE084E3D12068C168B1
:103C700021F08001C1602068C16841F04001C1604D
:103C8000D8E7206A0088C0F308004860206A801CDA
:103C90002062E5E74006CDD55006CBD5CA68204660
:103CA00022F04002CA6084F8413000F08FF8C1E78A
:103CB0002B49000870B5040004D094F84100002599
:103CC00010B106E0012070BD84F84050204600F09D
:103CD00023F8242084F841002068C16821F40051B1
:103CE000C160204600F036FF2068016921F4904150
:103CF00001612068416921F02A0141612068C168A1
:103D000041F40051C1606564202084F8410084F8CA
:103D100042006563002070BD70B586B00025064680
:103D200000950195029503950068224988423FD18C
:103D30002149886940F480408861886900F48040A6
:103D40000490886940F00400886188691B4C00F089
:103D50000400049048150090022001900320039075
:103D600069462046FEF78EFE2015CDE9000569461E
:103D700020460295FEF786FE124C1148C4E9000564
:103D80008020C4E9025020202561C4E90550204666
:103D9000E561FEF74DFD08B1FDF732FFF463002247
:103DA000012125206662FFF777FA2520FFF766FAE2
:103DB00006B070BD0038014000100240000801400C
:103DC00058000240BC010020704770477047FEE772
:103DD00001684A69D24352050FD46FF480624A6188
:103DE000002140F8301F202242738173026942F0A3
:103DF0000402026101730120704700207047000037
:103E00002DE9F84F0446C06A1E4693460D462168C8
:103E10000A6842F480620A60082807D0012805D0A9
:103E200010F5803F02D0206B112804D12068016872
:103E300041F4807101604FF001195B460022494650
:103E40002046009600F0CCF84FF4007840B120688E
:103E50000068C00501D5C4F840800320BDE8F88F94
:103E60002069DFF884A0B0F5804F0FD006202168CC
:103E700000EAD51747F0F000086133465A460AF1C8
:103E80000601204600F0F4F858BB03E0E8B240F029
:103E900001001CE02168E8B2086133465A465146E9
:103EA000204600F0E5F8E0B9206841698169009199
:103EB000016841F4807101605B460022494620465A
:103EC000009600F08DF80028C1D147F0F10021687C
:103ED000086133465A465146204600F0C9F800288A
:103EE000BCD00120BAE7000002000100F8B504468A
:103EF000C06A1E460D461746082807D0012805D07F
:103F000010F5803F02D0206B122804D12068016890
:103F100041F480710160134600224FF001112046E8
:103F2000009600F05DF840B120680068C00502D539
:103F30004FF4007020640320F8BD2069B0F5804F75
:103F40000ED00620216800EAD51040F0F00008618C
:103F500033463A460B49204600F08AF878B902E029
:103F600005F0FE0000E0E8B221680861054933462B
:103F70003A46891F204600F07BF80028DCD001205B
:103F8000F8BD00000800010070B516460D46044655
:103F90001EE02046FFF71CFF08B1012070BD681C21
:103FA00016D0FEF75DFE801BA84200D885B92068B8
:103FB0004069C04340070BD5002044F8300F202152
:103FC0006173A073216941F0200121612073E4E74E
:103FD00020684069C0434007DBD4002070BD00006A
:103FE0002DE9F047984617460D460446C1F30746AB
:103FF000DDF820902AE000BFB8F1FF3F26D0FEF7A1
:104000002FFEA0EB0901414502D8B8F1000F1DD1E8
:104010002068012E16D0806925EA00000004000CFB
:1040200012D00020B84211D1002044F8300F2021D6
:104030006173A073216941F0200121612073012087
:10404000BDE8F0874069E7E70120EBE72068012E33
:104050000AD0806925EA00000004000C06D0002088
:10406000B842C9D00020EBE74069F3E70120F7E749
:104070002DE9F047984616460D4604464FF00009D4
:104080004FF0200AC1F3074723E020684069C0438E
:10409000400515D42068016841F400710160216871
:1040A0006FF480604861C4F8309084F83DA084F8D3
:1040B0003E90216C41F00401216484F83C9021E0A1
:1040C000701C06D0FEF7CCFDA0EB0800B04203D870
:1040D00016B1012F1FD021E02068012F15D0806973
:1040E00025EA00000004000C18D000BF44F8309FFF
:1040F00084F80DA084F80E90216941F0200121611F
:1041000084F80C900120BDE8F087406925EA0000A2
:104110000004000CEAD12068406901E02068806951
:1041200025EA00000004000CAFD1ECE72DE9F041D6
:10413000002590460E460446202728E04069C043EB
:10414000C0060CD454F8301B6FF01000486144F8DE
:1041500010596777A577206A2062257714E0FEF76B
:104160007FFDA0EB0800B04200D886B92068406906
:10417000C04340060BD544F8305F6773A5732069D0
:1041800040F02000206125730120BDE8F081206807
:104190004169C9434906D1D40020F6E770B51646F7
:1041A0000D4604461EE02046FFF712FE08B101202E
:1041B00070BD681C16D0FEF753FD801BA84200D8C6
:1041C00085B920684069C04300060BD5002044F83B
:1041D000300F20216173A073216941F0200121611A
:1041E0002073E4E720684069C0430006DBD4002068
:1041F00070BD2DE9F0418846040032D0E66921689F
:10420000304602F0C3FD606005463046616902F049
:10421000BDFD216A02F0B4FBE0600746616A02F06E
:10422000AFFB0146384602F01FFC0646A061294656
:10423000404602F0A9FE314602F0A8FD294602F0F0
:104240009FFB0546A06031464FF07E5002F09CFE79
:10425000394602F09BFD2061256060612846BDE87B
:10426000F0810020FBE7002303604361C0E90812EE
:104270004FF07E51C16143608162704710B5FEF717
:10428000EFFCC821B0FBF1F201FB1200002806D1BF
:10429000BDE810404FF400410148FEF7D3BC10BD0B
:1042A000000C014001490860704700001400002024
:1042B000104810B50E4901600221416000214FF401
:1042C00020228160C0E903124FF44012426101765E
:1042D000012242768276C27601774177FEF754F862
:1042E000002803D0BDE81040FDF78ABC10BD0000D7
:1042F0000064004068000020094808B5416941F0A9
:10430000010141614069002200F001000090114666
:104310000F20FEF7C1FFBDE808400F20FEF7AEBF3B
:10432000001002402DE9F04385B00024214800949C
:10433000019402940394816941F0200181618169B3
:1043400001F020010491816941F0040181618169DA
:1043500001F004010491816941F0080181618069E3
:10436000DFF8548000F00800049000220821404645
:10437000FEF770FCDFF844904FF4404700223946C6
:104380004846FEF767FC082001250226CDE9000516
:10439000CDE9024669464046FEF774FB0097039656
:1043A000CDE9015469464846FEF76CFB05B0BDE80F
:1043B000F08300000010024000080140000C0140A2
:1043C0000D4810B50B4901600C49416000214FF4C4
:1043D00080428160C0E9031241618161C161016273
:1043E000FEF744FC002803D0BDE81040FDF708BCF0
:1043F00010BD00000054004090000020801A06000C
:1044000010B586B0002416480094019402940394D9
:10441000049412490594C0E900143F21C0E9024107
:10442000046144618461FEF7CFFF08B1FDF7E8FB4A
:104430004FF48050009069460948FFF751F808B1E1
:10444000FDF7DEFB049404A905480594FEF78CFFF4
:10445000002801D0FDF7D4FB06B010BD002C0140B0
:10446000E400002010B58AB0002407941C2168469F
:104470000894FCF7C3F81E484FF08041C0E90014CF
:104480002021816040F2FF41C0E903148461FFF7FD
:10449000D4F908B1FDF7B4FB079407A914480894B0
:1044A000FEF762FF08B1FDF7ABFB6020CDE9000429
:1044B0000294002269460E480494FFF758F908B1A7
:1044C000FDF79EFB042269460948FFF750F908B141
:1044D000FDF796FB082269460548FFF748F908B141
:1044E000FDF78EFB0248FFF71DF90AB010BD000072
:1044F0002C0100200C4810B50A4901604FF4E1314D
:104500004160002181600C22C160C0E90412816118
:10451000C161FFF7CFFB002803D0BDE81040FDF7D5
:104520006FBB10BD0038014074010020FEE70000A1
:1045300010B5124C206807281CD01148A060114803
:10454000E060A16802F0EEFC01D2A068E06000210A
:104550000D48FFF7B3F904210B48FFF7AFF9082125
:104560000948FFF7ABF90122BDE8104008210748D0
:10457000FEF770BB0648A0608002E1E7340000202F
:104580003D0A1B410000C0402C01002000080140F2
:10459000000090400EB5044A07CA8DE8070069463E
:1045A0000320FDF783FA0EBDBC71000870B5124CF4
:1045B0000546216802F0E8FC104902F0E7FB1049CB
:1045C00002F052FA02F0B0F90E4A0F4B01F082FCF1
:1045D00000220E4B01F0D6FE01F08EFB5FF00001D1
:1045E00004EB8102526844F82120491CC9B2042915
:1045F000F6D3256170BD00002002002000007A443F
:104600000000A040EA2E4454FB21194000004E4017
:10461000FEE77047704710B5FEF7D8FDBDE81040C3
:1046200001F098B9244810B5016821F0070141F064
:1046300002010160016801F007010229FAD11F4857
:10464000016841F4803101600168C1F340410029F3
:10465000FAD0416821F47C1141F4C811416001682D
:1046600041F0807101600168C1F340610029FAD016
:10467000416821F0F0014160416821F4E06141F4BA
:1046800080614160416821F460514160416821F0DE
:10469000030141F002014160416801F00C01082969
:1046A000FAD10748FFF7FEFD0020FEF7A9FD00281C
:1046B00001D072B6FEE710BD00200240001002409B
:1046C0000090D00370470000012080F31388BFF3EF
:1046D0004F8F05480168054A01F4E061114301600C
:1046E000BFF34F8F00BFFDE70CED00E00400FA05BB
:1046F00010B5FDF799F9BDE810400148FEF75FBF1E
:10470000E400002070B50268134B144C4FF0804653
:10471000984203D0B04201D0A04203D122F07005EC
:104720004A682A43984203D0B04201D0A04203D144
:1047300022F44074CA6822434C6922F0800222436A
:1047400002608A68C2620A688262984201D109697D
:1047500001630121416170BD002C01400004004053
:1047600010B501F01F030121046A99408C430462D3
:10477000016A9A401143016210BD10B5846842EA93
:10478000032224F47F440A432243826010BD8268DE
:1047900022F070020A4342F0070181607047000076
:1047A00030B5036A026A22F001020262426884693B
:1047B00024F073050C682C4323F002058B682B430F
:1047C0000A4DA8420BD123F00805CB6822F44072B1
:1047D0002B434D6923F0040315438A692A43426041
:1047E000846149684163036230BD0000002C0140D0
:1047F00030B5026A036A23F01003036243688469D8
:104800000D6824F4E64444EA05248D6822F0200271
:1048100042EA05120B4DA8420ED1CD6822F080026B
:1048200042EA05124D6923F4406343EA85038D692A
:1048300022F0400243EA8503436084614968816352
:10484000026230BD002C014030B5036A026A22F4D6
:10485000807202624268C46923F4007324F0730515
:104860000C682C438D6843EA05230C4DA8420ED1F9
:10487000CD6823F4006343EA05234D6922F44052D6
:1048800042EA05128D6923F4806342EA0512426010
:10489000C4614968C163036230BD0000002C01405F
:1048A00030B5046A026A22F4805202624268C36927
:1048B0000D6823F4E64343EA05238D6824F400548D
:1048C00044EA0534064DA84204D14D6922F48042E1
:1048D00042EA85124260C36149680164046230BDE6
:1048E000002C014010B5036A046A24F0010404623C
:1048F000846924F0F00444EA021423F00A020A4313
:104900008461026210BD10B5036A046A24F01004C9
:104910000462846923F0A00324F4704444EA023260
:1049200043EA01118261016210BD10B5406A0021A5
:10493000C185C184FFF786F810BD70B5446A206850
:10494000406994F84110C0F3C0100025212904D11A
:1049500018B1E584204600F08EF82068406994F88C
:104960004210C0F38010222904D118B1E5852046F9
:1049700000F05AF8606C40F0100060642046FFF7C9
:1049800061F870BD10B50146406A096809684FF0CA
:10499000000289062ED4C28501680C3151E8003F1F
:1049A00023F4807341E80034002CF5D10168143100
:1049B00051E8003F23F0010341E80034002CF5D119
:1049C0000168143151E8003F23F0400341E800340E
:1049D000002CF5D1202180F84210016B012909D16A
:1049E00001680C3151E8003F23F0100341E8003426
:1049F000002CF5D14263016B012902D0FFF7E4F9E5
:104A000010BD818DFEF7CEFF10BD10B5406A0121AB
:104A10004163016B012902D0FFF7D7F910BD818DE9
:104A20004908FEF7BFFF10BD01680C3151E8002FA7
:104A300022F4907241E80023002BF5D10168143173
:104A400051E8002F22F0010241E80023002BF5D1AC
:104A5000016B012909D101680C3151E8002F22F0C6
:104A6000100241E80023002BF5D1202180F84210EC
:104A700000210163704701680C3151E8002F22F0DA
:104A8000C00241E80023002BF5D1202180F841101D
:104A9000704708B590F84210222901D0022008BDC5
:104AA00082684FF480539A4201D1016921B1816A31
:104AB0009A421BD04AB10AE00268816A5268C2F386
:104AC00008020A80816A891C08E0026972B10268E2
:104AD000526802F07F020A70816A491C8162C18DAE
:104AE000491E0904090CC18503D01BE00268526805
:104AF000F1E70168CA6822F02002CA600168CA684A
:104B000022F48072CA6001684A6922F001024A6197
:104B1000202180F8421000214163026B012A03D05A
:104B2000FFF752F9002008BD016301680C3151E81C
:104B3000002F22F0100241E80023002BF5D101687C
:104B40000A68D20602D50A6849680091818DFEF78D
:104B500029FFE7E770B5044600680169E26821F4BF
:104B60004051114301612169A0680843616908430C
:104B70002168CA6841F20C639A430243CA60206804
:104B80004169A26921F44071114341611E492068C5
:104B9000884202D1FEF7C2FB01E0FEF7AFFB00EB5B
:104BA000C00101EB0012606864218000B2FBF0F3E9
:104BB000B3FBF1F36FF018067343B2FBF0F5B2FBF1
:104BC000F0F605EB8305322303EB0515B5FBF1F594
:104BD000B6FBF1F605F0F00505EB0615B2FBF0F6B5
:104BE000B2FBF0F0B0FBF1F06FF01802504306EBAF
:104BF000800003EB0010B0FBF1F0216800F00F0023
:104C00002844886070BD00000038014038B58162DA
:104C100004468285002013466064222284F84220E4
:104C2000E56B1B4AAA62E56B1A4AEA62E56B1A4A0F
:104C30002A63E26B50630A462168E06B091DFDF7A9
:104C400025FE2068016840680090206948B120680E
:104C50000C3050E8001F41F4807140E80012002A37
:104C6000F5D12068143050E8001F41F0010140E800
:104C70000012002AF5D12068143050E8001F41F0DE
:104C8000400140E80012002AF5D1002038BD0000A4
:104C9000854900080B4A00083B4900080148FEF717
:104CA000D3BE00007401002010B51022054906484B
:104CB000FEF750FE05480068016821F0040101601C
:104CC00010BD00003402002074010020BC0100204F
:104CD0000148FDF75BBA000068000020FEE74900CC
:104CE00050EAC12018BF04204A0D18BF40F001004F
:104CF00040F2FF72B2EB515F08BF40F002000128A2
:104D000008BF052070470907090E002804DB00F1E1
:104D1000E02080F80014704700F00F0000F1E02060
:104D200080F8141D70472DE9F0414F1E00EBC701BC
:104D30000446D1E9000115461E4637F006020DD0A3
:104D40002A46334601F01EFB7F1E04EBC703D3E95E
:104D5000002301F003F837F00602F1D1022F25D02D
:104D6000042F13D0062F18BFBDE8F0812A46334622
:104D700001F008FBD4E90A2300F0F0FF2A4633468D
:104D800001F000FBD4E9082300F0E8FF2A4633468F
:104D900001F0F8FAD4E9062300F0E0FF2A46334692
:104DA00001F0F0FAD4E9042300F0D8FF2A46334694
:104DB00001F0E8FAD4E9022300F0D0FF2A46334696
:104DC00001F0E0FAD4E90023BDE8F04100F0C6BFED
:104DD000012202F082B900F0C1BF00221346104642
:104DE000114601F077B80000024A0020110702F0D6
:104DF00074B9000001FDFFFF10B50446084601F03C
:104E000065FF2146BDE8104001F0C0BF30380A28D8
:104E100001D20120704700207047000070B501F0FA
:104E200083FD0C4C0C4D22462B4600F0D9FC00F0C3
:104E300063FF10F1FF4F02D201F076FD05E001F0B3
:104E400073FD22462B4600F089FFBDE8704000F05C
:104E500053BF0000EA2E4454FB2119402DE9F05FB6
:104E600005463E4FDFF8F8A0DFF8F8903E4EDFF839
:104E7000FCB001F059FD3E4A3E4B01F083FA8846F2
:104E80000446BD4217DA0022134601F021FC2046F9
:104E900041464FF000024B4602D800F05FFF01E0B0
:104EA00001F058FC01F0AAF956F8200001F003FACD
:104EB0005A4653464CE03048854214DA00222046D8
:104EC000134601F005FC204641464FF000024B46D8
:104ED00002D800F043FF01E001F03CFC01F08EF944
:104EE000C0F5C770E0E72548254F85424FF0000226
:104EF0002046134615DA01F0EBFB204641464FF001
:104F000000024B4602D800F029FF01E001F022FC2C
:104F100001F074F906EB8000A0F58050D0F8C809C4
:104F200012E001F0D5FB204641464FF000024B460F
:104F300002D800F013FF01E001F00CFC01F05EF973
:104F4000C0F5477056F8200001F0B5F95A463B46C7
:104F500001F018FABDE8F05F00F0CEBEDB0FC93FEC
:104F6000E2361A3F0000E03FC87100082D431CEBF9
:104F70009CA223B9FCAB5F40DB0F4940E4CB9640D9
:104F8000E2361ABF0249A1EB600101F0FFBE00004A
:104F9000865A375F704700002DE9F84F5DA0FBF798
:104FA0003DF9604E604FDFF88491DFF88481DFF8CF
:104FB00084A1614C00254FF4FA7B284601F07BF96F
:104FC00032463B4601F0DEF900224B4600F082FFFC
:104FD0004246534600F0C2FE00F08EFE024600211B
:104FE000E06800F0D7FC0220FDF788FC6D1C5D45F1
:104FF000E3DD00F0FBF85D46BB46464657460090B1
:10500000284601F058F9474A5B4601F0BBF90022F7
:105010004B4600F05FFF32463B4600F09FFE00F03B
:105020006BFE02460021E06800F0B4FC0220FDF7B0
:1050300065FC6D1EE4D500F0D9F800220546114646
:10504000104600F0A7FCC820FDF758FC009801F0BE
:105050006BFC02460B4639A0FBF7E0F8284601F04E
:1050600063FC02460B463AA0FBF7D8F829460098A5
:1050700001F08AFF20F000462946009801F0B6FDB5
:1050800002D0384886420ADC37A0FBF7C7F8002276
:1050900008213748FDF7DEFD0020BDE8F88F2946DE
:1050A000009801F03FFE02D24FF0FF3000E00120F7
:1050B0002061304A0021E06800F06CFC4FF42F7052
:1050C000FDF71CFC00F092F80546206901F0FEFD9A
:1050D000294601F05BFE2168FFF78EFEFFF79EFE7A
:1050E000254C20601420FDF709FC24A0FBF796F85E
:1050F000206801F019FC02460B4623A0FBF78EF84E
:1051000000221146104600F045FC6420FDF7F6FB36
:105110000120C2E7416C69676E2073656E736F7220
:105120002E0D0A00EA2E4454FB21194000407F4016
:10513000320D337F7CD91240340000206D69645FEA
:10514000616E676C653D252E34660D0A0000000017
:10515000656E645F616E676C653D252E34660D0A71
:10516000000000000AD7A33C4661696C656400003A
:1051700000080140E4CB96404C0000207A65726F35
:105180005F616E676C653A00252E34660D0A00007B
:105190003EB5002001900B200C2400908DF80840B3
:1051A0006C2102AA01230748FDF74CFF01AA022344
:1051B0006D2104480094FDF71DFEBDF8040040BABF
:1051C0003EBD00009000002010B5074C002060603C
:1051D000FFF7DEFF01F092FD20600520FDF78EFB5A
:1051E00000F004F8A06010BD5C0000202DE9F04143
:1051F000FFF7CEFF01F082FD294C0546216801F042
:10520000C3FE4FF400070646B84201DA86F00040BC
:10521000244988420DDB606801F086FB224ABE42C9
:1052200001DB224B00E0224B00F098FD00F064FD12
:10523000606025601F4A616800201F4E1F4F914229
:1052400008DB6060A06801F06FFB32463B4601F06E
:1052500081FA0AE01A4A91420AD96060A06801F016
:1052600063FB32463B4600F079FD00F045FDA0604F
:105270006FF00B01284601F05EFF01F055FB0A4A72
:105280000B4B01F07FF806460D46606801F04CFBC1
:1052900032462B4600F062FDBDE8F04100F02CBD27
:1052A0005C000020CDCC4C45EA2E4454FB2119C0B3
:1052B000FB2119407C59C445D1954A702F8BB840C9
:1052C0007C59C4C52DE9F84F04460D4621F0004035
:1052D00000917349814211DC7249884201DC06D198
:1052E0002CB120462946BDE8F84FFFF771BD6E4846
:1052F000002DCCBF6D496E49BDE8F88F6D498142E4
:1053000011DD6D498142D8BF4FF0FF366DDD20467B
:105310002946FFF7E4FC042808BFFFF765FD204697
:105320002946BDE8F88F6549654F25F00045814263
:1053300033DD6449814219DD002632464FF0804357
:105340002046294600F00AFD80468A460122204672
:10535000294601F0C2FE00223B4601F0FBF942461D
:10536000534600F0B7FD04460D463EE001260022FC
:10537000BA463B462046294600F0F0FC80460F46E0
:10538000002253462046294601F0E4F942463B46B6
:1053900000F0A0FD04460D4627E04B4981421BDD8D
:1053A000DFF828A10226002253462046294600F0B5
:1053B000E9FF00223B4600F0D1FC80460F46002268
:1053C00053462046294601F0C5F942463B4600F0C7
:1053D00081FD04460D4608E0032622462B460020A8
:1053E0003B4900F077FD04460D4622462B46104609
:1053F000194600F0C7FF8B46824602460B4600F076
:10540000C1FF07460246334888460B4606217844CA
:10541000FFF789FC52465B4600F0B4FF82462E48F7
:105420008B463A46434605217844FFF77CFC3A46D2
:10543000434600F0A7FF02460B46002E5046594651
:105440000CDA00F08BFC22462B4600F09BFF01B0EB
:1054500022462B46BDE8F04F01F070B900F07EFC0B
:1054600022462B4600F08EFF1C4A7A4402EBC6030C
:10547000D3E9002301F06EF922462B4601F06AF9C8
:10548000174A7A4402EBC603D3E9002301F056F928
:10549000009A002AB8BF81F00041BDE8F88F0000F3
:1054A000000010440000F07F182D4454FB21F93F08
:1054B000FB21F9BF0000DC3F0000203E0000F33F6D
:1054C0000000F03F0000E63F008003400000F83F8E
:1054D0000000F0BF3E210000FC2000009A200000E8
:1054E000622000002DE9F04D9446CCF1000423F039
:1054F00000464CEA0404594F46EAD4749A4688465A
:1055000021F00042BC4206D8454240EA050442EA86
:10551000D474BC4204D9BDE8F04D6246FFF75BBCD1
:10552000AAF14055A5F17F6555EA0C040BD0022481
:1055300004EAAA744A4DDFF82CE144EAD87452EA2E
:10554000000B04D00CE0BDE8F04DFFF7BBBE002C13
:1055500014BF012CBDE8F08D022C30D0032C32D0CA
:1055600056EA0C0B0AD0BE4220D1BA4209D126F02D
:10557000804622F080423346114617E000291ADBAC
:1055800025E0DFF8E4B0FB44002C04BFDBE90001B8
:10559000BDE8F08D012C02BFDBE9000181F0004184
:1055A000BDE8F08D022C0AD0032C0CD0BA4212D1E7
:1055B000B8F1000F0BDA2A482C49BDE8F08D2846D7
:1055C0002B49BDE8F08D28467146BDE8F08D244892
:1055D0002849BDE8F08D921B12153C2AC4BF204F0C
:1055E000244E10DCBAF1000FBEBF12F13C0F0027B1
:1055F0003E4608DB624600F06DFC21F00041FFF7FB
:1056000061FE07460E4694B1012C08BF86F00046A5
:105610000DD0194A194B022C3846314615D001F0ED
:1056200099F82A46BDE8F04D114B01F093B80022DD
:1056300013463846314600F0A5FD04BF0220FBF7B3
:105640000DF838463146BDE8F08D01F083F82A4662
:10565000BDE8F04D064B01F071B800000000F07F8E
:10566000182D4454FB2109C0F61F0000FB21F9BF8F
:10567000FB210940FB21F93F075C143326A6A13C1E
:10568000F8B506462EA1FAF785FF48B16A462EA165
:105690003046FAF7BBFE0098C0B2FCF7DBFB0CE02B
:1056A0002CA13046FAF776FF10B1FCF78BFB04E033
:1056B0002AA13046FAF76EFF08B1FFF705F829A1D5
:1056C0003046FAF767FF294D294C30B36A4629A1C5
:1056D0003046FAF79BFE009801F0F8FA284901F0ED
:1056E000C3F901462060286880F0004001F01AFCF0
:1056F00003D2286880F0004007E02968206801F0A4
:1057000011FC01D2286800E02068206001F00CF94B
:1057100002460B461BA0FAF781FD1FA13046FAF79F
:1057200039FF00280BD01E48006801F0FDF801B0D9
:105730000246BDE8F0400B461AA0FAF76FBDF8BD6F
:10574000736574696400000073657469643A256464
:105750000D0A000065726173650000007265626F7A
:105760006F740000766F743A000000003C00002067
:1057700000000020766F743A25640D0A00000000D6
:1057800000007A44766F7461676520697320252E66
:1057900033660D0A00000000616E676C6500000052
:1057A00050000020655F616E676C6520697320257D
:1057B0002E33660D0A000000074810B5006801F09E
:1057C00085FA064C216801F0E1FA616801F0DCFB22
:1057D000BDE81040FFF722BB340000204800002045
:1057E00070B514461D460E46002814BF0121002145
:1057F000314321F00041C1F17F6101F1E041C90F66
:1058000016D1002C14BF01210021294321F00041B1
:10581000C1F17F6101F1E041C90F09D11449B1EB38
:10582000460F08BF00281CD0690008BF002C18D004
:10583000314600F09FFE024640F2FF7030EA115000
:105840000DD0F017B0EBE17F09D0084665F31E00DC
:1058500084460B462046614600F070FF0246104623
:1058600070BD0120FAF7FAFEBDE87040FFF7B5BA47
:105870000000E0FF04490A685206FCD5024AC1B2A2
:10588000121D1160704700000038014010B500F093
:10589000F7F909490860FFF78FFF084902460860D9
:1058A00007480078002806D10648D0E90010BDE876
:1058B000104000F06FB810BD4800002050000020DC
:1058C0001800002054000020FDF788FCFEF7AAFE17
:1058D000FEF728FDFEF710FDFEF7EAFCFEF790FD4F
:1058E000FEF7C0FDFEF706FEFEF76AFDFFF76CFC53
:1058F000104A11491148FEF7B6FCFCF78DFA104A20
:10590000107000B90120107001460EA0FAF786FC55
:10591000FEF70EFEFCF700FAFFF7C6F9FEF73AFEB7
:10592000FCF7DEF80A4C206800F0A4F9FFF7AEFFA0
:10593000F9E70000CDCCCC3D6F12033A44020020C1
:105940001C00002049443A2531640D0A0000000083
:105950000000002070B5FEF791FCFCF711F90A4C2D
:105960006068FEF723FE2060FDF77AF9074DC00757
:1059700003D021682868FCF7D3F805482968FEF7AA
:1059800038FC606070BD00002C0000204800002042
:10599000440200202DE9FE4FAA4C06460D46A068A1
:1059A000174680F00040314601F0BCFA03D2A068EF
:1059B00080F0004605E03046A16801F0B3FA00D25D
:1059C000A668A068B14680F00040294601F0AAFA16
:1059D00003D2A06880F0004505E02846A16801F0E8
:1059E000A1FA00D2A568384605F0FF4600F09CFFFA
:1059F0008846074616B34946084601F0C7F90646E9
:105A00002946084601F0C2F9314600F0B9FFFFF718
:105A1000B9FA616801F028F80646284600F084FFCC
:105A200005460C46484600F07FFF2A462346FFF70E
:105A300059FD0B4602463846414608E04846616833
:105A400001F012F80646384641467F4A7F4B00F087
:105A500085F900F051F9FFF7E1F902467C487D49EC
:105A6000864201DB064602E08E4200D90E46104611
:105A700000F05AFF0546784A784B019100F02AFA67
:105A80000022774B00F06AF900F0E8FB81463046CF
:105A900000F04AFF06460F464846019C00F022FCF3
:105AA00080466D4A6D4B029100F06CFC2A462346FD
:105AB00000F050FE00F020F9FFF7D0F900F034FFBD
:105AC000DFF8A0A1DFF8A0B152465B4600F05AFC17
:105AD00032463B4600F056FC00F00EF9344600908A
